:020000040000FA
:060000002EEF04F01200D7
:0A00060001007A08000094000000D9
:0400100003000000E9
:0C0014007BDBDE6ADD6ADECF10F0DDCFA2
:1000200011F0FE0EDB50000111AE02D0D89003D0CB
:10003000105C000E11580FE2DE5000018025E96EC1
:10004000DD5081210F01EA6EEF50D6DADF2A010E72
:10005000E4E3DB2AE2D7020EE15C02E2E16AE55268
:10006000E16EB7D2B1DA27DBDEDA14E2DE6ADD6AEE
:1000700029DB04E63C0E105C000E115805E2DF2A75
:10008000010EF6E3DB2AF4D7020EDB2A030EECE3C3
:10009000DB2AEAD7040EE15C02E2E16AE552E16E96
:1000A00098D292DA030EE126640ECEDA0650DF6EA5
:1000B000300EDF24A1DA1DDB640EA2DA0A0EC4DAE8
:1000C000010E06C0DBFF26DB14DB0A0E99DAFD0EFB
:1000D000DB50E76E020EE7CFDBFF1CDB030EE15CBB
:1000E00002E2E16AE552E16E74D210DBF00EE76ED7
:1000F000FD0EDBCF10F0E7501016116A1050DF6EC6
:10010000DF380F0BDF6E300EDF2476DA0F0EE76E6E
:10011000FD0EDBCF10F0FE0EE7501016116A010E37
:1001200010C0DBFFF7DA020EE15C02E2E16AE552A1
:10013000E16E4FD249DA0F0E9514956EC70E9314E7
:10014000936E836A320E3ADA300E47DA050E36DAEB
:10015000300ECBDA300EC9DAFE0EDB50040807E1B0
:10016000200EC3DA0001010E946F280E09D0FE0E96
:10017000DB50080806E1300EB8DA0001946B380E47
:100180002CDA0C0E2ADA010E28DA060E26DA800E98
:1001900024DA1FD219DA819A81980001945102E081
:1001A00098DA03D0FE0EDB50ABDA7BD80108FDE114
:1001B00010D2ACDAFE0EDB500F0BDF6EFE0EDB5002
:1001C000F00BE76E010EE7CFDBFFDB5099DADF388B
:1001D000F00B96DA020EE15C02E2E16AE552E16EB2
:1001E000F8D1F2D9818A81980001945102E071DA44
:1001F00007D0FE0EDB50836E8186010EDFD981961B
:1002000050D80108FDE1E5D181DADE6ADD6A2ADA3B
:1002100007E028DAF1D9DF2A010EF9E3DB2AF7D764
:10022000020EE15C02E2E16AE552E16ED2D1010E1A
:10023000EDEF02F0C9D9E652FD0EDB04E76EFD0ECC
:10024000E7CFDBFFFE0EDB0402E1800E05D0FE0EE1
:10025000DB50020802E1C00EDF6EFD0EDB50DF2432
:10026000DF6EDFCFE6FF96DFE552E552B2D1ACD9C3
:10027000E652DF6AFE0EDB50DF5C04E2180EADD9F9
:1002800004DAF8D7E552A5D19FD9E652DF6AFE0E0F
:10029000DB50DF5C04E21C0EA0D9F7D9F8D7E55299
:1002A00098D1819A8188958E83AE05D08196010E72
:1002B00085D98186F9D7959E010C86D9FCD9B3D909
:1002C00014E2DE6ADD6AFED904E63C0E105C000E24
:1002D000115805E2DF2A010EF6E3DB2AF4D7020EFD
:1002E000DB2A030EECE3DB2AEAD7040EE15C02E230
:1002F000E16AE552E16E6DD194889486280EC86E4D
:10030000800EC76E280EC66E1200C5809EA6FED750
:100310009E961200C5829EA6FED79E961200C584A8
:100320009EA6FED79E961200C59AC5889EA6FED7A9
:100330009E961200C58AC5889EA6FED79E9612007C
:1003400043D9FE0EDB50C96E9EA6FED79E96C550C1
:10035000400B01E0010E3DD1C5869EA6FED79E96BC
:10036000C950120031D9FE0EDB50600BE76EFE0E55
:10037000E7CFDBFFDB5004E0FE0EDB50200802E19C
:10038000020E0BD0FE0EDB50400802E1000E05D03D
:10039000FE0EDB50600801E1010E1BD115D9FA0EEB
:1003A000DB500C080DE1FB0EDB500001965D04E113
:1003B000FE0EDB5060090BD0FE0EDB50400907D06B
:1003C000FA0EDB50180807E1FE0EDB50BF0BE76E9C
:1003D000FE0EE7CFDBFF50D9FEE0E66AB1DFE55263
:1003E000FC0EFFD8FD0EFDD8FE0EFBD898DFF1D035
:1003F000EBD842D9FEE0030E91D9FB0EF2D8FE0EE7
:10040000F0D8FD0EEED8FC0EECD889DFE2D0DCD8B7
:10041000E65232D9FEE0FE0EE4D87CDFD10E7ED962
:100420009BDFDF6E7CDFDF50E552D3D0040EE66E3B
:1004300081DEE55261DF000EE66E080E31D90C0E4A
:10044000E66E96C0E6FFE66A310EE66E050EE66ED3
:10045000A5DF106E050EE15E1050050EE66E160E5D
:10046000E66E040EE66E150EE66EC2DFE552E5524C
:10047000E552E552E66A19D9F00EE66E070E10D97C
:100480002ED9E552E552D3DEEA0EE66E070E08D904
:10049000E66A0BD9E40EE66E070EE66EB5DEE552AF
:1004A000E552E66AB4DFE5520001876F010EE9D834
:1004B0000001866F020EE5D80001856F030EE1D8BA
:1004C0000001896F040EDDD80001826F050ED9D8B6
:1004D0000001836F060ED5D80001846F050EE66E0D
:1004E000E66AA8DEE552E5521F0E00018515886F09
:1004F000E8507CD83A0E80D80001865177D83A0E61
:100500007BD80001875172D885C0E6FF2BDFE5520A
:10051000010804E1E10EE66E070E09D085C0E6FF92
:1005200021DFE552000904E1DE0EE66E070EB8D8C1
:10053000050EE66EBAD80001825158D82F0E5CD84D
:100540000001835153D82F0E57D8000184514ED843
:1005500000018951070A24E0010A1EE0030A18E09D
:10056000010A12E0070A0CE0010A06E0030A1EE194
:10057000DA0EE66E070E17D0D60EE66E070E13D013
:10058000D20EE66E070E0FD0CE0EE66E070E0BD023
:10059000CA0EE66E070E07D0C60EE66E070E03D033
:1005A000C20EE66E070EE66E2FDE04D08951E66EAF
:1005B000E66A9BDDE552E55292D871D7E66EE66AAF
:1005C00051DDE552E5521200D9CFE6FFE1CFD9FF68
:1005D0001200E552E7CFD9FF1200E66EDBDDE552EF
:1005E0001200DBCFE6FFACDEE5521200E66EE66AF3
:1005F0007CDDE552E5521200E66EF3DDE5521200B5
:100600000B6E0C6A10C006F011C007F008EC04F085
:1006100002C010F003C011F0FD0E02C0DBFFFE0EA1
:1006200003C0DBFF1200020EDBCF10F0030EDBCFA6
:1006300011F0FD0EDBCF12F0FE0EDBCF13F01250E7
:10064000105C135011581200106E116AFD0EDBCFB2
:1006500006F0FE0EDBCF07F010C00BF011C00CF05F
:1006600008EF04F046D8DE501024F66EDD5011205D
:10067000F76E0800F550120048DED00E4FD8010882
:100680001200E66EC4DEE5521200FC0EDBCFE6FF80
:10069000FD0EDBCFE6FFE6DCE552E552DF2A120075
:1006A000E66EB2DDE552E5521200010EE66EC2DDE5
:1006B000E552E5521200040EE126020EDB6A030E3B
:1006C000DB6A1200DECF10F0DDCF11F0D8901150B0
:1006D0001200FE0EDBCFE6FF6CDDE5521200E80EE5
:1006E000E66E030EE66E5DEF01F077DF010EDEEFE2
:1006F00002F0FD0EDBCF10F0FE0EDBCF11F012008A
:10070000836E8186020E5ADF819612005DDF020E33
:10071000E1261200DB50300FFCEF02F0E66E10DE37
:04072000E55212008C
:0C072400060EF66E000EF76E000EF86E6A
:1007300000010900F5508F6F0900F550906F03E13B
:100740008F6701D03DD00900F5508A6F0900F55040
:100750008B6F0900F5508C6F09000900F550E96EA8
:100760000900F550EA6E090009000900F5508D6F87
:100770000900F5508E6F09000900F6CF91F0F7CF10
:1007800092F0F8CF93F08AC0F6FF8BC0F7FF8CC0D1
:10079000F8FF00018D5302E18E5307E00900F55088
:1007A000EE6E8D07F8E28E07F9D791C0F6FF92C082
:1007B000F7FF93C0F8FF00018F07000E905BBFD7D3
:0207C000120025
:0E07C20053554E0053415400465249005448CE
:1007D000550057454400545545004D4F4E00414D7E
:1007E00000504D00446174653A0054696D653A00EB
:1007F0005265616C2054696D6520436C6F636B00BA
:10080000454C454354524F2D50415353494F4E0090
:10081000036A026A100EE76ED89006360736023673
:1008200003360B50025C0C50035805E30B50025E7C
:0C0830000C50035A062AE72EF0D71200E5
:04083C00000EF36E49
:1008400000EE00F0060E01D81200EA6002D0EE6A57
:0C085000FCD7F350E9601200EE6AFCD700
:04085C0015EE00F0A5
:1008600025EE00F0F86A0F9C92EC03F03CEC04F0EB
:0808700016EC02F0FBD71200A8
:0208780012006C
:03087A000000017A
:020000040030CA
:0100010021DD
:010002000CF1
:010003000EEE
:010006008178
:010008000FE8
:01000900C036
:00000001FF
